{
    "contractName": "CrowdFunding",
    "abi": [
        {
            "inputs": [
                {
                    "internalType": "uint256",
                    "name": "ID",
                    "type": "uint256"
                },
                {
                    "internalType": "uint256",
                    "name": "useID",
                    "type": "uint256"
                },
                {
                    "internalType": "bool",
                    "name": "agree",
                    "type": "bool"
                }
            ],
            "name": "agreeUse",
            "outputs": [],
            "stateMutability": "nonpayable",
            "type": "function"
        },
        {
            "inputs": [
                {
                    "internalType": "uint256",
                    "name": "ID",
                    "type": "uint256"
                },
                {
                    "internalType": "uint256",
                    "name": "useID",
                    "type": "uint256"
                }
            ],
            "name": "checkUse",
            "outputs": [],
            "stateMutability": "nonpayable",
            "type": "function"
        },
        {
            "inputs": [
                {
                    "internalType": "uint256",
                    "name": "ID",
                    "type": "uint256"
                }
            ],
            "name": "contribute",
            "outputs": [],
            "stateMutability": "payable",
            "type": "function"
        },
        {
            "inputs": [
                {
                    "internalType": "uint256",
                    "name": "",
                    "type": "uint256"
                }
            ],
            "name": "fundings",
            "outputs": [
                {
                    "internalType": "address payable",
                    "name": "initiator",
                    "type": "address"
                },
                {
                    "internalType": "string",
                    "name": "title",
                    "type": "string"
                },
                {
                    "internalType": "string",
                    "name": "info",
                    "type": "string"
                },
                {
                    "internalType": "uint256",
                    "name": "goal",
                    "type": "uint256"
                },
                {
                    "internalType": "uint256",
                    "name": "endTime",
                    "type": "uint256"
                },
                {
                    "internalType": "bool",
                    "name": "success",
                    "type": "bool"
                },
                {
                    "internalType": "uint256",
                    "name": "amount",
                    "type": "uint256"
                },
                {
                    "internalType": "uint256",
                    "name": "numFunders",
                    "type": "uint256"
                },
                {
                    "internalType": "uint256",
                    "name": "numUses",
                    "type": "uint256"
                }
            ],
            "stateMutability": "view",
            "type": "function"
        },
        {
            "inputs": [],
            "name": "getBalance",
            "outputs": [
                {
                    "internalType": "uint256",
                    "name": "",
                    "type": "uint256"
                }
            ],
            "stateMutability": "view",
            "type": "function"
        },
        {
            "inputs": [
                {
                    "internalType": "address",
                    "name": "addr",
                    "type": "address"
                },
                {
                    "internalType": "uint256",
                    "name": "ID",
                    "type": "uint256"
                }
            ],
            "name": "getMyFundings",
            "outputs": [
                {
                    "internalType": "uint256",
                    "name": "",
                    "type": "uint256"
                }
            ],
            "stateMutability": "view",
            "type": "function"
        },
        {
            "inputs": [
                {
                    "internalType": "uint256",
                    "name": "ID",
                    "type": "uint256"
                },
                {
                    "internalType": "uint256",
                    "name": "useID",
                    "type": "uint256"
                },
                {
                    "internalType": "address",
                    "name": "addr",
                    "type": "address"
                }
            ],
            "name": "getUse",
            "outputs": [
                {
                    "internalType": "string",
                    "name": "",
                    "type": "string"
                },
                {
                    "internalType": "uint256",
                    "name": "",
                    "type": "uint256"
                },
                {
                    "internalType": "uint256",
                    "name": "",
                    "type": "uint256"
                },
                {
                    "internalType": "uint256",
                    "name": "",
                    "type": "uint256"
                },
                {
                    "internalType": "bool",
                    "name": "",
                    "type": "bool"
                },
                {
                    "internalType": "uint256",
                    "name": "",
                    "type": "uint256"
                }
            ],
            "stateMutability": "view",
            "type": "function"
        },
        {
            "inputs": [
                {
                    "internalType": "uint256",
                    "name": "ID",
                    "type": "uint256"
                }
            ],
            "name": "getUseLength",
            "outputs": [
                {
                    "internalType": "uint256",
                    "name": "",
                    "type": "uint256"
                }
            ],
            "stateMutability": "view",
            "type": "function"
        },
        {
            "inputs": [
                {
                    "internalType": "address payable",
                    "name": "initiator",
                    "type": "address"
                },
                {
                    "internalType": "string",
                    "name": "title",
                    "type": "string"
                },
                {
                    "internalType": "string",
                    "name": "info",
                    "type": "string"
                },
                {
                    "internalType": "uint256",
                    "name": "goal",
                    "type": "uint256"
                },
                {
                    "internalType": "uint256",
                    "name": "endTime",
                    "type": "uint256"
                }
            ],
            "name": "newFunding",
            "outputs": [
                {
                    "internalType": "uint256",
                    "name": "",
                    "type": "uint256"
                }
            ],
            "stateMutability": "nonpayable",
            "type": "function"
        },
        {
            "inputs": [
                {
                    "internalType": "uint256",
                    "name": "ID",
                    "type": "uint256"
                },
                {
                    "internalType": "uint256",
                    "name": "goal",
                    "type": "uint256"
                },
                {
                    "internalType": "string",
                    "name": "info",
                    "type": "string"
                }
            ],
            "name": "newUse",
            "outputs": [],
            "stateMutability": "nonpayable",
            "type": "function"
        },
        {
            "inputs": [],
            "name": "numFundings",
            "outputs": [
                {
                    "internalType": "uint256",
                    "name": "",
                    "type": "uint256"
                }
            ],
            "stateMutability": "view",
            "type": "function"
        },
        {
            "inputs": [
                {
                    "internalType": "uint256",
                    "name": "ID",
                    "type": "uint256"
                }
            ],
            "name": "returnMoney",
            "outputs": [],
            "stateMutability": "nonpayable",
            "type": "function"
        }
    ],
    "bytecode": "608060405234801561001057600080fd5b50611367806100206000396000f3fe6080604052600436106100a75760003560e01c80638a23e047116100645780638a23e047146101705780638f74935f14610190578063c1cbbca7146101b0578063c70a2d79146101c3578063d13cb1fb146101d9578063ee40f60d1461020e57600080fd5b806312065fe0146100ac578063164b2fb3146100ce5780633785fc1a146100f05780633c6983491461011057806357531ea214610130578063716f714714610150575b600080fd5b3480156100b857600080fd5b50475b6040519081526020015b60405180910390f35b3480156100da57600080fd5b506100ee6100e9366004610fbb565b610240565b005b3480156100fc57600080fd5b506100ee61010b36600461100b565b61036e565b34801561011c57600080fd5b506100bb61012b36600461100b565b61047d565b34801561013c57600080fd5b506100ee61014b366004611024565b6104b0565b34801561015c57600080fd5b506100bb61016b36600461107a565b61076b565b34801561017c57600080fd5b506100ee61018b3660046110a6565b6107fe565b34801561019c57600080fd5b506100bb6101ab3660046110c8565b6109a5565b6100ee6101be36600461100b565b610a53565b3480156101cf57600080fd5b506100bb60005481565b3480156101e557600080fd5b506101f96101f436600461100b565b610b58565b6040516100c59998979695949392919061119d565b34801561021a57600080fd5b5061022e61022936600461120b565b610cc1565b6040516100c596959493929190611239565b6000548311158015610253575060018310155b61025c57600080fd5b60008381526001602081905260409091206005015460ff1615151461028057600080fd5b60008381526001602052604090206006015482111561029e57600080fd5b6000838152600160205260409020546001600160a01b031633146102c157600080fd5b6000838152600160208190526040909120600881015490916102e3919061128d565b600882018190556000908152600a820160209081526040909120835161030b92850190610e7f565b506008810180546000908152600a8301602052604080822060010186905582548252808220600201829055825482528082206003018290559154815220600401805460ff1916905560068101546103639084906112a5565b600690910155505050565b6000548111158015610381575060018110155b61038a57600080fd5b60008181526001602052604090206005015460ff16156103a957600080fd5b6000818152600160208190526040909120905b81600701548111610478576000818152600983016020526040902054336001600160a01b0390911603610466576000818152600983016020526040808220805460019091015491516001600160a01b039091169282156108fc02929190818181858888f19350505050158015610436573d6000803e3d6000fd5b506000818152600983016020526040812060010181905560068301805482906104609082906112a5565b90915550505b80610470816112bc565b9150506103bc565b505050565b600080548211158015610491575060018210155b61049a57600080fd5b5060009081526001602052604090206008015490565b60005483111580156104c3575060018310155b6104cc57600080fd5b60008381526001602052604090206008015482118015906104ee575060018210155b6104f757600080fd5b6000838152600160209081526040808320858452600a0190915290206004015460ff161561052457600080fd5b60015b6000848152600160205260409020600701548111610760576000848152600160209081526040808320848452600901909152902054336001600160a01b039091160361074e576000848152600160208181526040808420878552600a0182528084208585526005019091529091205490036105e957600084815260016020818152604080842085855260098101835281852090930154878552600a90930190915282206002018054919290916105de9084906112a5565b909155506106609050565b6000848152600160209081526040808320868452600a01825280832084845260050190915290205460020361066057600084815260016020818152604080842085855260098101835281852090930154878552600a909301909152822060030180549192909161065a9084906112a5565b90915550505b81156106db57600084815260016020818152604080842085855260098101835281852090930154878552600a90930190915282206002018054919290916106a890849061128d565b90915550506000848152600160208181526040808420878552600a0182528084208585526005019091529091205561074e565b600084815260016020818152604080842085855260098101835281852090930154878552600a909301909152822060030180549192909161071d90849061128d565b90915550506000848152600160209081526040808320868452600a0182528083208484526005019091529020600290555b80610758816112bc565b915050610527565b5061047883836107fe565b60008060015b60008481526001602052604090206007015481116107f65760008481526001602090815260408083208484526009019091529020546001600160a01b038087169116036107e457600084815260016020818152604080842085855260090190915290912001546107e1908361128d565b91505b806107ee816112bc565b915050610771565b509392505050565b6000548211158015610811575060018210155b61081a57600080fd5b6000828152600160209081526040808320848452600a0190915290206004015460ff161561084757600080fd5b600082815260016020526040902060030154610865906002906112d5565b6000838152600160209081526040808320858452600a01909152902060020154106108f3576000828152600160208181526040808420858552600a810190925280842060048101805460ff1916851790559154919092015491516001600160a01b03909116926108fc831502929190818181858888f193505050501580156108f1573d6000803e3d6000fd5b505b600082815260016020526040902060030154610911906002906112d5565b6000838152600160209081526040808320858452600a0190915290206003015411156109a1576000828152600160208181526040808420858552600a81018352908420830154938690529190526006015461096c919061128d565b60008381526001602081815260408084206006810195909555858452600a9094019052919020600401805460ff191690911790555b5050565b60004282116109b357600080fd5b6000546109c190600161128d565b600081815590815260016020818152604090922080546001600160a01b0319166001600160a01b038a1617815587519092610a029284019190890190610e7f565b508451610a189060028301906020880190610e7f565b50600381019390935550600482015560058101805460ff19169055600060068201819055600782018190556008909101819055549392505050565b600034118015610a85575060008181526001602052604090206006810154600390910154610a8191906112a5565b3411155b610a8e57600080fd5b6000818152600160205260409020600401544210610aab57600080fd5b60008181526001602052604090206005015460ff1615610aca57600080fd5b600081815260016020526040812060068101805491923492610aed90849061128d565b90915550506007810154610b0290600161128d565b60078201818155600091825260098301602052604080832080546001600160a01b031916331790559054825290203460019190910155600381015460068201546005909201805460ff1916919092101517905550565b6001602081905260009182526040909120805491810180546001600160a01b0390931692610b85906112f7565b80601f0160208091040260200160405190810160405280929190818152602001828054610bb1906112f7565b8015610bfe5780601f10610bd357610100808354040283529160200191610bfe565b820191906000526020600020905b815481529060010190602001808311610be157829003601f168201915b505050505090806002018054610c13906112f7565b80601f0160208091040260200160405190810160405280929190818152602001828054610c3f906112f7565b8015610c8c5780601f10610c6157610100808354040283529160200191610c8c565b820191906000526020600020905b815481529060010190602001808311610c6f57829003601f168201915b505050600384015460048501546005860154600687015460078801546008909801549697939692955060ff9091169350919089565b6060600080600080600080548911158015610cdd575060018910155b610ce657600080fd5b6000898152600160205260409020600801548811801590610d08575060018810155b610d1157600080fd5b60008981526001602081815260408084208c8552600a01909152822091905b60008c8152600160205260409020600701548111610db85760008c81526001602090815260408083208484526009019091529020546001600160a01b03808c16911603610da65760008c81526001602090815260408083208e8452600a0182528083208484526005019091529020549150610db8565b80610db0816112bc565b915050610d30565b5060018201546002830154600384015460048501548554869493929160ff169086908690610de5906112f7565b80601f0160208091040260200160405190810160405280929190818152602001828054610e11906112f7565b8015610e5e5780601f10610e3357610100808354040283529160200191610e5e565b820191906000526020600020905b815481529060010190602001808311610e4157829003601f168201915b50505050509550975097509750975097509750505093975093979195509350565b828054610e8b906112f7565b90600052602060002090601f016020900481019282610ead5760008555610ef3565b82601f10610ec657805160ff1916838001178555610ef3565b82800160010185558215610ef3579182015b82811115610ef3578251825591602001919060010190610ed8565b50610eff929150610f03565b5090565b5b80821115610eff5760008155600101610f04565b634e487b7160e01b600052604160045260246000fd5b600082601f830112610f3f57600080fd5b813567ffffffffffffffff80821115610f5a57610f5a610f18565b604051601f8301601f19908116603f01168101908282118183101715610f8257610f82610f18565b81604052838152866020858801011115610f9b57600080fd5b836020870160208301376000602085830101528094505050505092915050565b600080600060608486031215610fd057600080fd5b8335925060208401359150604084013567ffffffffffffffff811115610ff557600080fd5b61100186828701610f2e565b9150509250925092565b60006020828403121561101d57600080fd5b5035919050565b60008060006060848603121561103957600080fd5b83359250602084013591506040840135801515811461105757600080fd5b809150509250925092565b6001600160a01b038116811461107757600080fd5b50565b6000806040838503121561108d57600080fd5b823561109881611062565b946020939093013593505050565b600080604083850312156110b957600080fd5b50508035926020909101359150565b600080600080600060a086880312156110e057600080fd5b85356110eb81611062565b9450602086013567ffffffffffffffff8082111561110857600080fd5b61111489838a01610f2e565b9550604088013591508082111561112a57600080fd5b5061113788828901610f2e565b9598949750949560608101359550608001359392505050565b6000815180845260005b818110156111765760208185018101518683018201520161115a565b81811115611188576000602083870101525b50601f01601f19169290920160200192915050565b6001600160a01b038a168152610120602082018190526000906111c28382018c611150565b905082810360408401526111d6818b611150565b60608401999099525050608081019590955292151560a085015260c084019190915260e0830152610100909101529392505050565b60008060006060848603121561122057600080fd5b8335925060208401359150604084013561105781611062565b60c08152600061124c60c0830189611150565b602083019790975250604081019490945260608401929092521515608083015260a090910152919050565b634e487b7160e01b600052601160045260246000fd5b600082198211156112a0576112a0611277565b500190565b6000828210156112b7576112b7611277565b500390565b6000600182016112ce576112ce611277565b5060010190565b6000826112f257634e487b7160e01b600052601260045260246000fd5b500490565b600181811c9082168061130b57607f821691505b60208210810361132b57634e487b7160e01b600052602260045260246000fd5b5091905056fea26469706673582212209fa70696d253999b3814acc7d881850e9b133bf6d04626b3c6108943a3189be064736f6c634300080d0033",
    "sourcePath": "c:/Users/guduhuanzhe/Desktop/crowdfunding-dapp-master/contracts/CrowdFunding.sol",
    "compiler": {
        "name": "solc",
        "version": "0.8.13+commit.abaa5c0e"
    },
    "functionHashes": {
        "agreeUse(uint256,uint256,bool)": "57531ea2",
        "checkUse(uint256,uint256)": "8a23e047",
        "contribute(uint256)": "c1cbbca7",
        "fundings(uint256)": "d13cb1fb",
        "getBalance()": "12065fe0",
        "getMyFundings(address,uint256)": "716f7147",
        "getUse(uint256,uint256,address)": "ee40f60d",
        "getUseLength(uint256)": "3c698349",
        "newFunding(address,string,string,uint256,uint256)": "8f74935f",
        "newUse(uint256,uint256,string)": "164b2fb3",
        "numFundings()": "c70a2d79",
        "returnMoney(uint256)": "3785fc1a"
    },
    "gasEstimates": {
        "creation": {
            "codeDepositCost": "993400",
            "executionCost": "1034",
            "totalCost": "994434"
        },
        "external": {
            "agreeUse(uint256,uint256,bool)": "infinite",
            "checkUse(uint256,uint256)": "infinite",
            "contribute(uint256)": "infinite",
            "fundings(uint256)": "infinite",
            "getBalance()": "173",
            "getMyFundings(address,uint256)": "infinite",
            "getUse(uint256,uint256,address)": "infinite",
            "getUseLength(uint256)": "4677",
            "newFunding(address,string,string,uint256,uint256)": "infinite",
            "newUse(uint256,uint256,string)": "infinite",
            "numFundings()": "2350",
            "returnMoney(uint256)": "infinite"
        }
    }
}