{
  "contractName": "CrowdFunding",
  "abi": [
    {
      "constant": true,
      "inputs": [
        {
          "internalType": "uint256",
          "name": "",
          "type": "uint256"
        }
      ],
      "name": "fundings",
      "outputs": [
        {
          "internalType": "address payable",
          "name": "initiator",
          "type": "address"
        },
        {
          "internalType": "string",
          "name": "title",
          "type": "string"
        },
        {
          "internalType": "string",
          "name": "info",
          "type": "string"
        },
        {
          "internalType": "uint256",
          "name": "goal",
          "type": "uint256"
        },
        {
          "internalType": "uint256",
          "name": "endTime",
          "type": "uint256"
        },
        {
          "internalType": "bool",
          "name": "success",
          "type": "bool"
        },
        {
          "internalType": "uint256",
          "name": "amount",
          "type": "uint256"
        },
        {
          "internalType": "uint256",
          "name": "numFunders",
          "type": "uint256"
        },
        {
          "internalType": "uint256",
          "name": "numUses",
          "type": "uint256"
        }
      ],
      "payable": false,
      "stateMutability": "view",
      "type": "function"
    },
    {
      "constant": true,
      "inputs": [],
      "name": "numFundings",
      "outputs": [
        {
          "internalType": "uint256",
          "name": "",
          "type": "uint256"
        }
      ],
      "payable": false,
      "stateMutability": "view",
      "type": "function"
    },
    {
      "constant": false,
      "inputs": [
        {
          "internalType": "address payable",
          "name": "initiator",
          "type": "address"
        },
        {
          "internalType": "string",
          "name": "title",
          "type": "string"
        },
        {
          "internalType": "string",
          "name": "info",
          "type": "string"
        },
        {
          "internalType": "uint256",
          "name": "goal",
          "type": "uint256"
        },
        {
          "internalType": "uint256",
          "name": "endTime",
          "type": "uint256"
        }
      ],
      "name": "newFunding",
      "outputs": [
        {
          "internalType": "uint256",
          "name": "",
          "type": "uint256"
        }
      ],
      "payable": false,
      "stateMutability": "nonpayable",
      "type": "function"
    },
    {
      "constant": false,
      "inputs": [
        {
          "internalType": "uint256",
          "name": "ID",
          "type": "uint256"
        }
      ],
      "name": "contribute",
      "outputs": [],
      "payable": true,
      "stateMutability": "payable",
      "type": "function"
    },
    {
      "constant": false,
      "inputs": [
        {
          "internalType": "uint256",
          "name": "ID",
          "type": "uint256"
        }
      ],
      "name": "returnMoney",
      "outputs": [],
      "payable": false,
      "stateMutability": "nonpayable",
      "type": "function"
    },
    {
      "constant": false,
      "inputs": [
        {
          "internalType": "uint256",
          "name": "ID",
          "type": "uint256"
        },
        {
          "internalType": "uint256",
          "name": "goal",
          "type": "uint256"
        },
        {
          "internalType": "string",
          "name": "info",
          "type": "string"
        }
      ],
      "name": "newUse",
      "outputs": [],
      "payable": false,
      "stateMutability": "nonpayable",
      "type": "function"
    },
    {
      "constant": false,
      "inputs": [
        {
          "internalType": "uint256",
          "name": "ID",
          "type": "uint256"
        },
        {
          "internalType": "uint256",
          "name": "useID",
          "type": "uint256"
        },
        {
          "internalType": "bool",
          "name": "agree",
          "type": "bool"
        }
      ],
      "name": "agreeUse",
      "outputs": [],
      "payable": false,
      "stateMutability": "nonpayable",
      "type": "function"
    },
    {
      "constant": false,
      "inputs": [
        {
          "internalType": "uint256",
          "name": "ID",
          "type": "uint256"
        },
        {
          "internalType": "uint256",
          "name": "useID",
          "type": "uint256"
        }
      ],
      "name": "checkUse",
      "outputs": [],
      "payable": false,
      "stateMutability": "nonpayable",
      "type": "function"
    },
    {
      "constant": true,
      "inputs": [
        {
          "internalType": "uint256",
          "name": "ID",
          "type": "uint256"
        }
      ],
      "name": "getUseLength",
      "outputs": [
        {
          "internalType": "uint256",
          "name": "",
          "type": "uint256"
        }
      ],
      "payable": false,
      "stateMutability": "view",
      "type": "function"
    },
    {
      "constant": true,
      "inputs": [
        {
          "internalType": "uint256",
          "name": "ID",
          "type": "uint256"
        },
        {
          "internalType": "uint256",
          "name": "useID",
          "type": "uint256"
        },
        {
          "internalType": "address",
          "name": "addr",
          "type": "address"
        }
      ],
      "name": "getUse",
      "outputs": [
        {
          "internalType": "string",
          "name": "",
          "type": "string"
        },
        {
          "internalType": "uint256",
          "name": "",
          "type": "uint256"
        },
        {
          "internalType": "uint256",
          "name": "",
          "type": "uint256"
        },
        {
          "internalType": "uint256",
          "name": "",
          "type": "uint256"
        },
        {
          "internalType": "bool",
          "name": "",
          "type": "bool"
        },
        {
          "internalType": "uint256",
          "name": "",
          "type": "uint256"
        }
      ],
      "payable": false,
      "stateMutability": "view",
      "type": "function"
    },
    {
      "constant": true,
      "inputs": [],
      "name": "getBalance",
      "outputs": [
        {
          "internalType": "uint256",
          "name": "",
          "type": "uint256"
        }
      ],
      "payable": false,
      "stateMutability": "view",
      "type": "function"
    },
    {
      "constant": true,
      "inputs": [
        {
          "internalType": "address",
          "name": "addr",
          "type": "address"
        },
        {
          "internalType": "uint256",
          "name": "ID",
          "type": "uint256"
        }
      ],
      "name": "getMyFundings",
      "outputs": [
        {
          "internalType": "uint256",
          "name": "",
          "type": "uint256"
        }
      ],
      "payable": false,
      "stateMutability": "view",
      "type": "function"
    }
  ],
  "bytecode": "0x608060405234801561001057600080fd5b50611aa6806100206000396000f3fe6080604052600436106100a75760003560e01c80638a23e047116100645780638a23e047146102fd5780638f74935f14610342578063c1cbbca7146104e9578063c70a2d7914610517578063d13cb1fb14610542578063ee40f60d146106c3576100a7565b806312065fe0146100ac578063164b2fb3146100d75780633785fc1a146101b35780633c698349146101ee57806357531ea21461023d578063716f71471461028e575b600080fd5b3480156100b857600080fd5b506100c16107c8565b6040518082815260200191505060405180910390f35b3480156100e357600080fd5b506101b1600480360360608110156100fa57600080fd5b8101908080359060200190929190803590602001909291908035906020019064010000000081111561012b57600080fd5b82018360208201111561013d57600080fd5b8035906020019184600183028401116401000000008311171561015f57600080fd5b91908080601f016020809104026020016040519081016040528093929190818152602001838380828437600081840152601f19601f8201169050808301925050505050505091929192905050506107d0565b005b3480156101bf57600080fd5b506101ec600480360360208110156101d657600080fd5b81019080803590602001909291905050506109b8565b005b3480156101fa57600080fd5b506102276004803603602081101561021157600080fd5b8101908080359060200190929190505050610b8f565b6040518082815260200191505060405180910390f35b34801561024957600080fd5b5061028c6004803603606081101561026057600080fd5b810190808035906020019092919080359060200190929190803515159060200190929190505050610bca565b005b34801561029a57600080fd5b506102e7600480360360408110156102b157600080fd5b81019080803573ffffffffffffffffffffffffffffffffffffffff16906020019092919080359060200190929190505050610fc1565b6040518082815260200191505060405180910390f35b34801561030957600080fd5b506103406004803603604081101561032057600080fd5b8101908080359060200190929190803590602001909291905050506110b2565b005b34801561034e57600080fd5b506104d3600480360360a081101561036557600080fd5b81019080803573ffffffffffffffffffffffffffffffffffffffff169060200190929190803590602001906401000000008111156103a257600080fd5b8201836020820111156103b457600080fd5b803590602001918460018302840111640100000000831117156103d657600080fd5b91908080601f016020809104026020016040519081016040528093929190818152602001838380828437600081840152601f19601f8201169050808301925050505050505091929192908035906020019064010000000081111561043957600080fd5b82018360208201111561044b57600080fd5b8035906020019184600183028401116401000000008311171561046d57600080fd5b91908080601f016020809104026020016040519081016040528093929190818152602001838380828437600081840152601f19601f8201169050808301925050505050505091929192908035906020019092919080359060200190929190505050611347565b6040518082815260200191505060405180910390f35b610515600480360360208110156104ff57600080fd5b810190808035906020019092919050505061144a565b005b34801561052357600080fd5b5061052c6115c7565b6040518082815260200191505060405180910390f35b34801561054e57600080fd5b5061057b6004803603602081101561056557600080fd5b81019080803590602001909291905050506115cd565b604051808a73ffffffffffffffffffffffffffffffffffffffff1673ffffffffffffffffffffffffffffffffffffffff16815260200180602001806020018981526020018881526020018715151515815260200186815260200185815260200184815260200183810383528b818151815260200191508051906020019080838360005b838110156106195780820151818401526020810190506105fe565b50505050905090810190601f1680156106465780820380516001836020036101000a031916815260200191505b5083810382528a818151815260200191508051906020019080838360005b8381101561067f578082015181840152602081019050610664565b50505050905090810190601f1680156106ac5780820380516001836020036101000a031916815260200191505b509b50505050505050505050505060405180910390f35b3480156106cf57600080fd5b50610726600480360360608110156106e657600080fd5b810190808035906020019092919080359060200190929190803573ffffffffffffffffffffffffffffffffffffffff169060200190929190505050611778565b604051808060200187815260200186815260200185815260200184151515158152602001838152602001828103825288818151815260200191508051906020019080838360005b8381101561078857808201518184015260208101905061076d565b50505050905090810190601f1680156107b55780820380516001836020036101000a031916815260200191505b5097505050505050505060405180910390f35b600047905090565b60005483111580156107e3575060018310155b6107ec57600080fd5b600115156001600085815260200190815260200160002060050160009054906101000a900460ff1615151461082057600080fd5b600160008481526020019081526020016000206006015482111561084357600080fd5b6001600084815260200190815260200160002060000160009054906101000a900473ffffffffffffffffffffffffffffffffffffffff1673ffffffffffffffffffffffffffffffffffffffff163373ffffffffffffffffffffffffffffffffffffffff16146108b157600080fd5b6000600160008581526020019081526020016000209050600181600801540181600801819055508181600a0160008360080154815260200190815260200160002060000190805190602001906109089291906119cc565b508281600a0160008360080154815260200190815260200160002060010181905550600081600a0160008360080154815260200190815260200160002060020181905550600081600a0160008360080154815260200190815260200160002060030181905550600081600a0160008360080154815260200190815260200160002060040160006101000a81548160ff02191690831515021790555082816006015403816006018190555050505050565b60005481111580156109cb575060018110155b6109d457600080fd5b600015156001600083815260200190815260200160002060050160009054906101000a900460ff16151514610a0857600080fd5b60006001600083815260200190815260200160002090506000600190505b81600701548111610b8a573373ffffffffffffffffffffffffffffffffffffffff1682600901600083815260200190815260200160002060000160009054906101000a900473ffffffffffffffffffffffffffffffffffffffff1673ffffffffffffffffffffffffffffffffffffffff161415610b7d5781600901600082815260200190815260200160002060000160009054906101000a900473ffffffffffffffffffffffffffffffffffffffff1673ffffffffffffffffffffffffffffffffffffffff166108fc836009016000848152602001908152602001600020600101549081150290604051600060405180830381858888f19350505050158015610b33573d6000803e3d6000fd5b506000826009016000838152602001908152602001600020600101819055508160090160008281526020019081526020016000206001015482600601600082825403925050819055505b8080600101915050610a26565b505050565b600080548211158015610ba3575060018210155b610bac57600080fd5b60016000838152602001908152602001600020600801549050919050565b6000548311158015610bdd575060018310155b610be657600080fd5b60016000848152602001908152602001600020600801548211158015610c0d575060018210155b610c1657600080fd5b6000151560016000858152602001908152602001600020600a01600084815260200190815260200160002060040160009054906101000a900460ff16151514610c5e57600080fd5b6000600190505b60016000858152602001908152602001600020600701548111610fb1573373ffffffffffffffffffffffffffffffffffffffff1660016000868152602001908152602001600020600901600083815260200190815260200160002060000160009054906101000a900473ffffffffffffffffffffffffffffffffffffffff1673ffffffffffffffffffffffffffffffffffffffff161415610fa4576001806000868152602001908152602001600020600a0160008581526020019081526020016000206005016000838152602001908152602001600020541415610daa576001600085815260200190815260200160002060090160008281526020019081526020016000206001015460016000868152602001908152602001600020600a01600085815260200190815260200160002060020160008282540392505081905550610e52565b600260016000868152602001908152602001600020600a0160008581526020019081526020016000206005016000838152602001908152602001600020541415610e51576001600085815260200190815260200160002060090160008281526020019081526020016000206001015460016000868152602001908152602001600020600a016000858152602001908152602001600020600301600082825403925050819055505b5b8115610eff576001600085815260200190815260200160002060090160008281526020019081526020016000206001015460016000868152602001908152602001600020600a016000858152602001908152602001600020600201600082825401925050819055506001806000868152602001908152602001600020600a016000858152602001908152602001600020600501600083815260200190815260200160002081905550610fa3565b6001600085815260200190815260200160002060090160008281526020019081526020016000206001015460016000868152602001908152602001600020600a01600085815260200190815260200160002060030160008282540192505081905550600260016000868152602001908152602001600020600a0160008581526020019081526020016000206005016000838152602001908152602001600020819055505b5b8080600101915050610c65565b50610fbc83836110b2565b505050565b600080600090506000600190505b600160008581526020019081526020016000206007015481116110a7578473ffffffffffffffffffffffffffffffffffffffff1660016000868152602001908152602001600020600901600083815260200190815260200160002060000160009054906101000a900473ffffffffffffffffffffffffffffffffffffffff1673ffffffffffffffffffffffffffffffffffffffff16141561109a5760016000858152602001908152602001600020600901600082815260200190815260200160002060010154820191505b8080600101915050610fcf565b508091505092915050565b60005482111580156110c5575060018210155b6110ce57600080fd5b6000151560016000848152602001908152602001600020600a01600083815260200190815260200160002060040160009054906101000a900460ff1615151461111657600080fd5b600260016000848152602001908152602001600020600301548161113657fe5b0460016000848152602001908152602001600020600a0160008381526020019081526020016000206002015410611251576001806000848152602001908152602001600020600a01600083815260200190815260200160002060040160006101000a81548160ff0219169083151502179055506001600083815260200190815260200160002060000160009054906101000a900473ffffffffffffffffffffffffffffffffffffffff1673ffffffffffffffffffffffffffffffffffffffff166108fc60016000858152602001908152602001600020600a016000848152602001908152602001600020600101549081150290604051600060405180830381858888f1935050505015801561124f573d6000803e3d6000fd5b505b600260016000848152602001908152602001600020600301548161127157fe5b0460016000848152602001908152602001600020600a0160008381526020019081526020016000206003015411156113435760016000838152602001908152602001600020600a0160008281526020019081526020016000206001015460016000848152602001908152602001600020600601540160016000848152602001908152602001600020600601819055506001806000848152602001908152602001600020600a01600083815260200190815260200160002060040160006101000a81548160ff0219169083151502179055505b5050565b600042821161135557600080fd5b600160005401600081905550600060016000805481526020019081526020016000209050868160000160006101000a81548173ffffffffffffffffffffffffffffffffffffffff021916908373ffffffffffffffffffffffffffffffffffffffff160217905550858160010190805190602001906113d49291906119cc565b50848160020190805190602001906113ed9291906119cc565b5083816003018190555082816004018190555060008160050160006101000a81548160ff02191690831515021790555060008160060181905550600081600701819055506000816008018190555060005491505095945050505050565b600034118015611488575060016000828152602001908152602001600020600601546001600083815260200190815260200160002060030154033411155b61149157600080fd5b426001600083815260200190815260200160002060040154116114b357600080fd5b600015156001600083815260200190815260200160002060050160009054906101000a900460ff161515146114e757600080fd5b600060016000838152602001908152602001600020905034816006016000828254019250508190555060018160070154018160070181905550338160090160008360070154815260200190815260200160002060000160006101000a81548173ffffffffffffffffffffffffffffffffffffffff021916908373ffffffffffffffffffffffffffffffffffffffff1602179055503481600901600083600701548152602001908152602001600020600101819055508060030154816006015410158160050160006101000a81548160ff0219169083151502179055505050565b60005481565b60016020528060005260406000206000915090508060000160009054906101000a900473ffffffffffffffffffffffffffffffffffffffff1690806001018054600181600116156101000203166002900480601f01602080910402602001604051908101604052809291908181526020018280546001816001161561010002031660029004801561169f5780601f106116745761010080835404028352916020019161169f565b820191906000526020600020905b81548152906001019060200180831161168257829003601f168201915b505050505090806002018054600181600116156101000203166002900480601f01602080910402602001604051908101604052809291908181526020018280546001816001161561010002031660029004801561173d5780601f106117125761010080835404028352916020019161173d565b820191906000526020600020905b81548152906001019060200180831161172057829003601f168201915b5050505050908060030154908060040154908060050160009054906101000a900460ff16908060060154908060070154908060080154905089565b6060600080600080600080548911158015611794575060018910155b61179d57600080fd5b600160008a81526020019081526020016000206008015488111580156117c4575060018810155b6117cd57600080fd5b6000600160008b8152602001908152602001600020600a0160008a8152602001908152602001600020905060008090506000600190505b600160008d81526020019081526020016000206007015481116118ef578973ffffffffffffffffffffffffffffffffffffffff16600160008e8152602001908152602001600020600901600083815260200190815260200160002060000160009054906101000a900473ffffffffffffffffffffffffffffffffffffffff1673ffffffffffffffffffffffffffffffffffffffff1614156118e257600160008d8152602001908152602001600020600a0160008c815260200190815260200160002060050160008281526020019081526020016000205491506118ef565b8080600101915050611804565b50816000018260010154836002015484600301548560040160009054906101000a900460ff1685858054600181600116156101000203166002900480601f0160208091040260200160405190810160405280929190818152602001828054600181600116156101000203166002900480156119ab5780601f10611980576101008083540402835291602001916119ab565b820191906000526020600020905b81548152906001019060200180831161198e57829003601f168201915b50505050509550975097509750975097509750505093975093979195509350565b828054600181600116156101000203166002900490600052602060002090601f016020900481019282601f10611a0d57805160ff1916838001178555611a3b565b82800160010185558215611a3b579182015b82811115611a3a578251825591602001919060010190611a1f565b5b509050611a489190611a4c565b5090565b611a6e91905b80821115611a6a576000816000905550600101611a52565b5090565b9056fea265627a7a72315820538988b2e88336c32f24eb0e2ac9ea2ad83ed91013efdb3a4acef2eb9f2c8abf64736f6c63430005100032",
  "source": "// SPDX-License-Identifier: MIT\npragma solidity >=0.4.22 <0.9.0;\n\ncontract CrowdFunding {\n  \n  // \n  struct Funder {\n    address payable addr;   // \n    uint amount;            // \n  }\n\n  // \n  struct Use {\n    string info;                     // \n    uint goal;                       // \n    uint agreeAmount;                // \n    uint disagree;                   // \n    bool over;                       // \n    mapping(uint => uint) agree;     //  0: 12\n  }\n\n  // \n  struct Funding {\n    address payable initiator;       // \n    string title;                    // \n    string info;                     // \n    uint goal;                       // \n    uint endTime;                    // \n\n    bool success;                    //  amount \n\n    uint amount;                     // \n    uint numFunders;                 // \n    uint numUses;                    // \n    mapping(uint => Funder) funders; // \n    mapping(uint => Use) uses;       // \n  }\n\n  uint public numFundings;                  // \n  mapping(uint => Funding) public fundings; // \n\n  /**\n   * \n   * @param initiator \n   * @param title \n   * @param info \n   * @param goal \n   * @param endTime \n   */\n  function newFunding(address payable initiator, string memory title, string memory info, uint goal, uint endTime) public returns(uint) {\n    require(endTime > block.timestamp);\n\n    numFundings = numFundings + 1;\n    Funding storage f = fundings[numFundings];\n    f.initiator = initiator;\n    f.title = title;\n    f.info = info;\n    f.goal = goal;\n    f.endTime = endTime;\n    f.success = false;\n    f.amount = 0;\n    f.numFunders = 0;\n    f.numUses = 0;\n    \n    return numFundings;\n  }\n\n  function contribute(uint ID) public payable {\n    // 0\n    require(msg.value > 0 && msg.value <= fundings[ID].goal - fundings[ID].amount);\n    // \n    require(fundings[ID].endTime > block.timestamp);\n    // \n    require(fundings[ID].success == false);\n\n    Funding storage f = fundings[ID];\n    f.amount += msg.value;\n    f.numFunders = f.numFunders + 1;\n    f.funders[f.numFunders].addr = msg.sender ;\n    f.funders[f.numFunders].amount = msg.value;\n    // \n    f.success = f.amount >= f.goal;\n  }\n\n  // \n  function returnMoney(uint ID) public {\n    require(ID <= numFundings && ID >= 1);\n    require(fundings[ID].success == false);\n\n    Funding storage f = fundings[ID];\n    for(uint i=1; i<=f.numFunders; i++)\n      if(f.funders[i].addr == msg.sender) {\n        f.funders[i].addr.transfer(f.funders[i].amount);\n        f.funders[i].amount = 0;\n        f.amount -= f.funders[i].amount;\n      }\n  }\n\n  function newUse(uint ID, uint goal, string memory info) public {\n    require(ID <= numFundings && ID >= 1);\n    require(fundings[ID].success == true);\n    require(goal <= fundings[ID].amount);\n    require(msg.sender == fundings[ID].initiator);\n\n    Funding storage f = fundings[ID];\n    f.numUses = f.numUses + 1;\n    f.uses[f.numUses].info = info;\n    f.uses[f.numUses].goal = goal;\n    f.uses[f.numUses].agreeAmount = 0;\n    f.uses[f.numUses].disagree = 0;\n    f.uses[f.numUses].over = false;\n    f.amount = f.amount - goal;\n  }\n\n  function agreeUse(uint ID, uint useID, bool agree) public {\n    require(ID <= numFundings && ID >= 1);\n    require(useID <= fundings[ID].numUses && useID >= 1);\n    require(fundings[ID].uses[useID].over == false);\n\n    for(uint i=1; i<=fundings[ID].numFunders; i++)\n      if(fundings[ID].funders[i].addr == msg.sender) {\n        if(fundings[ID].uses[useID].agree[i] == 1) {\n          fundings[ID].uses[useID].agreeAmount -= fundings[ID].funders[i].amount;\n        } else if(fundings[ID].uses[useID].agree[i] == 2) {\n          fundings[ID].uses[useID].disagree -= fundings[ID].funders[i].amount;\n        }\n        if(agree) {\n          fundings[ID].uses[useID].agreeAmount += fundings[ID].funders[i].amount;\n          fundings[ID].uses[useID].agree[i] = 1;\n        }\n        else {\n          fundings[ID].uses[useID].disagree += fundings[ID].funders[i].amount;\n          fundings[ID].uses[useID].agree[i] = 2;\n        }\n      }\n    checkUse(ID, useID);\n  }\n\n  function checkUse(uint ID, uint useID) public {\n    require(ID <= numFundings && ID >= 1);\n    require(fundings[ID].uses[useID].over == false);\n\n    if(fundings[ID].uses[useID].agreeAmount >= fundings[ID].goal / 2) {\n      fundings[ID].uses[useID].over = true;\n      fundings[ID].initiator.transfer(fundings[ID].uses[useID].goal);\n    }\n    if(fundings[ID].uses[useID].disagree > fundings[ID].goal / 2) {\n      fundings[ID].amount = fundings[ID].amount + fundings[ID].uses[useID].goal;\n      fundings[ID].uses[useID].over = true;\n    }\n  }\n\n  function getUseLength(uint ID) public view returns (uint) {\n    require(ID <= numFundings && ID >= 1);\n\n    return fundings[ID].numUses;\n  }\n\n  function getUse(uint ID, uint useID, address addr) public view returns (string memory, uint, uint, uint, bool, uint) {\n    require(ID <= numFundings && ID >= 1);\n    require(useID <= fundings[ID].numUses && useID >= 1);\n\n    Use storage u = fundings[ID].uses[useID];\n    uint agree = 0;\n    for(uint i=1; i<=fundings[ID].numFunders; i++)\n      if(fundings[ID].funders[i].addr == addr) {\n        agree = fundings[ID].uses[useID].agree[i];\n        break;\n      }\n    return (u.info, u.goal, u.agreeAmount, u.disagree, u.over, agree);\n  }\n\n  function getBalance() public view returns (uint) {\n    return address(this).balance;\n  }\n  \n  function getMyFundings(address addr, uint ID) public view returns (uint) {\n      uint res = 0;\n      for(uint i=1; i<=fundings[ID].numFunders; i++) {\n          if(fundings[ID].funders[i].addr == addr)\n            res += fundings[ID].funders[i].amount;\n      }\n      return res;\n  } \n}",
  "sourcePath": "C:\\Users\\guduhuanzhe\\Desktop\\crowdfunding-dapp-master\\contracts\\CrowdFunding.sol",
  "compiler": {
    "name": "solc",
    "version": "0.5.16+commit.9c3226ce.Emscripten.clang"
  },
  "schemaVersion": "3.4.5",
  "updatedAt": "2022-04-26T13:28:22.883Z",
  "devdoc": {
    "methods": {
      "newFunding(address,string,string,uint256,uint256)": {
        "params": {
          "endTime": "",
          "goal": "",
          "info": "",
          "initiator": "",
          "title": ""
        }
      }
    }
  },
  "userdoc": {
    "methods": {
      "newFunding(address,string,string,uint256,uint256)": {
        "notice": ""
      }
    }
  }
}